{
  "_format": "hh-sol-artifact-1",
  "contractName": "TokenizedBallot",
  "sourceName": "contracts/TokenizedBallot.sol",
  "abi": [
    {
      "inputs": [
        {
          "internalType": "bytes32[]",
          "name": "proposalNames",
          "type": "bytes32[]"
        },
        {
          "internalType": "address",
          "name": "_tokenContract",
          "type": "address"
        },
        {
          "internalType": "uint256",
          "name": "_referenceBlock",
          "type": "uint256"
        }
      ],
      "stateMutability": "nonpayable",
      "type": "constructor"
    },
    {
      "anonymous": false,
      "inputs": [
        {
          "indexed": true,
          "internalType": "address",
          "name": "previousOwner",
          "type": "address"
        },
        {
          "indexed": true,
          "internalType": "address",
          "name": "newOwner",
          "type": "address"
        }
      ],
      "name": "OwnershipTransferred",
      "type": "event"
    },
    {
      "inputs": [],
      "name": "owner",
      "outputs": [
        {
          "internalType": "address",
          "name": "",
          "type": "address"
        }
      ],
      "stateMutability": "view",
      "type": "function"
    },
    {
      "inputs": [
        {
          "internalType": "uint256",
          "name": "",
          "type": "uint256"
        }
      ],
      "name": "proposals",
      "outputs": [
        {
          "internalType": "bytes32",
          "name": "name",
          "type": "bytes32"
        },
        {
          "internalType": "uint256",
          "name": "voteCount",
          "type": "uint256"
        }
      ],
      "stateMutability": "view",
      "type": "function"
    },
    {
      "inputs": [],
      "name": "referenceBlock",
      "outputs": [
        {
          "internalType": "uint256",
          "name": "",
          "type": "uint256"
        }
      ],
      "stateMutability": "view",
      "type": "function"
    },
    {
      "inputs": [],
      "name": "renounceOwnership",
      "outputs": [],
      "stateMutability": "nonpayable",
      "type": "function"
    },
    {
      "inputs": [
        {
          "internalType": "uint256",
          "name": "_newReferenceBlock",
          "type": "uint256"
        }
      ],
      "name": "setReferenceToken",
      "outputs": [],
      "stateMutability": "nonpayable",
      "type": "function"
    },
    {
      "inputs": [],
      "name": "tokenContract",
      "outputs": [
        {
          "internalType": "contract IERC20VotableToken",
          "name": "",
          "type": "address"
        }
      ],
      "stateMutability": "view",
      "type": "function"
    },
    {
      "inputs": [
        {
          "internalType": "address",
          "name": "newOwner",
          "type": "address"
        }
      ],
      "name": "transferOwnership",
      "outputs": [],
      "stateMutability": "nonpayable",
      "type": "function"
    },
    {
      "inputs": [
        {
          "internalType": "uint256",
          "name": "proposal",
          "type": "uint256"
        },
        {
          "internalType": "uint256",
          "name": "amount",
          "type": "uint256"
        }
      ],
      "name": "vote",
      "outputs": [],
      "stateMutability": "nonpayable",
      "type": "function"
    },
    {
      "inputs": [
        {
          "internalType": "address",
          "name": "account",
          "type": "address"
        }
      ],
      "name": "votingPower",
      "outputs": [
        {
          "internalType": "uint256",
          "name": "votingPower_",
          "type": "uint256"
        }
      ],
      "stateMutability": "nonpayable",
      "type": "function"
    },
    {
      "inputs": [
        {
          "internalType": "address",
          "name": "",
          "type": "address"
        }
      ],
      "name": "votingPowerSpent",
      "outputs": [
        {
          "internalType": "uint256",
          "name": "",
          "type": "uint256"
        }
      ],
      "stateMutability": "view",
      "type": "function"
    },
    {
      "inputs": [],
      "name": "winnerName",
      "outputs": [
        {
          "internalType": "bytes32",
          "name": "winnerName_",
          "type": "bytes32"
        }
      ],
      "stateMutability": "view",
      "type": "function"
    },
    {
      "inputs": [],
      "name": "winningProposal",
      "outputs": [
        {
          "internalType": "uint256",
          "name": "winningProposal_",
          "type": "uint256"
        }
      ],
      "stateMutability": "view",
      "type": "function"
    }
  ],
  "bytecode": "0x60806040523480156200001157600080fd5b5060405162001305380380620013058339818101604052810190620000379190620002ff565b620000576200004b6200014060201b60201c565b6200014860201b60201c565b60005b8351811015620000ee5760036040518060400160405280868481518110620000875762000086620004cd565b5b6020026020010151815260200160008152509080600181540180825580915050600190039060005260206000209060020201600090919091909150600082015181600001556020820151816001015550508080620000e59062000450565b9150506200005a565b5081600260006101000a81548173ffffffffffffffffffffffffffffffffffffffff021916908373ffffffffffffffffffffffffffffffffffffffff160217905550806001819055505050506200059e565b600033905090565b60008060009054906101000a900473ffffffffffffffffffffffffffffffffffffffff169050816000806101000a81548173ffffffffffffffffffffffffffffffffffffffff021916908373ffffffffffffffffffffffffffffffffffffffff1602179055508173ffffffffffffffffffffffffffffffffffffffff168173ffffffffffffffffffffffffffffffffffffffff167f8be0079c531659141344cd1fd0a4f28419497f9722a3daafe3b4186f6b6457e060405160405180910390a35050565b6000620002236200021d84620003a3565b6200037a565b9050808382526020820190508285602086028201111562000249576200024862000530565b5b60005b858110156200027d5781620002628882620002d1565b8452602084019350602083019250506001810190506200024c565b5050509392505050565b600081519050620002988162000550565b92915050565b600082601f830112620002b657620002b56200052b565b5b8151620002c88482602086016200020c565b91505092915050565b600081519050620002e2816200056a565b92915050565b600081519050620002f98162000584565b92915050565b6000806000606084860312156200031b576200031a6200053a565b5b600084015167ffffffffffffffff8111156200033c576200033b62000535565b5b6200034a868287016200029e565b93505060206200035d8682870162000287565b92505060406200037086828701620002e8565b9150509250925092565b60006200038662000399565b90506200039482826200041a565b919050565b6000604051905090565b600067ffffffffffffffff821115620003c157620003c0620004fc565b5b602082029050602081019050919050565b6000620003df82620003f0565b9050919050565b6000819050919050565b600073ffffffffffffffffffffffffffffffffffffffff82169050919050565b6000819050919050565b62000425826200053f565b810181811067ffffffffffffffff82111715620004475762000446620004fc565b5b80604052505050565b60006200045d8262000410565b91507fffffffffffffffffffffffffffffffffffffffffffffffffffffffffffffffff8214156200049357620004926200049e565b5b600182019050919050565b7f4e487b7100000000000000000000000000000000000000000000000000000000600052601160045260246000fd5b7f4e487b7100000000000000000000000000000000000000000000000000000000600052603260045260246000fd5b7f4e487b7100000000000000000000000000000000000000000000000000000000600052604160045260246000fd5b600080fd5b600080fd5b600080fd5b600080fd5b6000601f19601f8301169050919050565b6200055b81620003d2565b81146200056757600080fd5b50565b6200057581620003e6565b81146200058157600080fd5b50565b6200058f8162000410565b81146200059b57600080fd5b50565b610d5780620005ae6000396000f3fe608060405234801561001057600080fd5b50600436106100b45760003560e01c8063a720035111610071578063a72003511461016a578063b384abef1461019a578063c07473f6146101b6578063d94c8caa146101e6578063e2ba53f014610204578063f2fde38b14610222576100b4565b8063013cf08b146100b957806355a373d6146100ea578063609ff1bd14610108578063715018a6146101265780638da5cb5b146101305780638eb83c421461014e575b600080fd5b6100d360048036038101906100ce91906107e6565b61023e565b6040516100e1929190610984565b60405180910390f35b6100f2610272565b6040516100ff91906109ad565b60405180910390f35b610110610298565b60405161011d9190610a28565b60405180910390f35b61012e610320565b005b610138610334565b6040516101459190610925565b60405180910390f35b610168600480360381019061016391906107e6565b61035d565b005b610184600480360381019061017f91906107b9565b61036f565b6040516101919190610a28565b60405180910390f35b6101b460048036038101906101af9190610840565b610387565b005b6101d060048036038101906101cb91906107b9565b61046e565b6040516101dd9190610a28565b60405180910390f35b6101ee610572565b6040516101fb9190610a28565b60405180910390f35b61020c610578565b6040516102199190610969565b60405180910390f35b61023c600480360381019061023791906107b9565b6105ac565b005b6003818154811061024e57600080fd5b90600052602060002090600202016000915090508060000154908060010154905082565b600260009054906101000a900473ffffffffffffffffffffffffffffffffffffffff1681565b6000806000905060005b60038054905081101561031b5781600382815481106102c4576102c3610bd2565b5b906000526020600020906002020160010154111561030857600381815481106102f0576102ef610bd2565b5b90600052602060002090600202016001015491508092505b808061031390610b5a565b9150506102a2565b505090565b610328610630565b61033260006106ae565b565b60008060009054906101000a900473ffffffffffffffffffffffffffffffffffffffff16905090565b610365610630565b8060018190555050565b60046020528060005260406000206000915090505481565b60006103923361046e565b9050818110156103d7576040517f08c379a00000000000000000000000000000000000000000000000000000000081526004016103ce906109e8565b60405180910390fd5b81600384815481106103ec576103eb610bd2565b5b9060005260206000209060020201600101600082825461040c9190610a54565b9250508190555081600460003373ffffffffffffffffffffffffffffffffffffffff1673ffffffffffffffffffffffffffffffffffffffff16815260200190815260200160002060008282546104629190610a54565b92505081905550505050565b6000600460003373ffffffffffffffffffffffffffffffffffffffff1673ffffffffffffffffffffffffffffffffffffffff16815260200190815260200160002054600260009054906101000a900473ffffffffffffffffffffffffffffffffffffffff1673ffffffffffffffffffffffffffffffffffffffff16633a46b1a8846001546040518363ffffffff1660e01b815260040161050f929190610940565b602060405180830381600087803b15801561052957600080fd5b505af115801561053d573d6000803e3d6000fd5b505050506040513d601f19601f820116820180604052508101906105619190610813565b61056b9190610aaa565b9050919050565b60015481565b60006003610584610298565b8154811061059557610594610bd2565b5b906000526020600020906002020160000154905090565b6105b4610630565b600073ffffffffffffffffffffffffffffffffffffffff168173ffffffffffffffffffffffffffffffffffffffff161415610624576040517f08c379a000000000000000000000000000000000000000000000000000000000815260040161061b906109c8565b60405180910390fd5b61062d816106ae565b50565b610638610772565b73ffffffffffffffffffffffffffffffffffffffff16610656610334565b73ffffffffffffffffffffffffffffffffffffffff16146106ac576040517f08c379a00000000000000000000000000000000000000000000000000000000081526004016106a390610a08565b60405180910390fd5b565b60008060009054906101000a900473ffffffffffffffffffffffffffffffffffffffff169050816000806101000a81548173ffffffffffffffffffffffffffffffffffffffff021916908373ffffffffffffffffffffffffffffffffffffffff1602179055508173ffffffffffffffffffffffffffffffffffffffff168173ffffffffffffffffffffffffffffffffffffffff167f8be0079c531659141344cd1fd0a4f28419497f9722a3daafe3b4186f6b6457e060405160405180910390a35050565b600033905090565b60008135905061078981610cf3565b92915050565b60008135905061079e81610d0a565b92915050565b6000815190506107b381610d0a565b92915050565b6000602082840312156107cf576107ce610c01565b5b60006107dd8482850161077a565b91505092915050565b6000602082840312156107fc576107fb610c01565b5b600061080a8482850161078f565b91505092915050565b60006020828403121561082957610828610c01565b5b6000610837848285016107a4565b91505092915050565b6000806040838503121561085757610856610c01565b5b60006108658582860161078f565b92505060206108768582860161078f565b9150509250929050565b61088981610ade565b82525050565b61089881610af0565b82525050565b6108a781610b24565b82525050565b60006108ba602683610a43565b91506108c582610c06565b604082019050919050565b60006108dd604283610a43565b91506108e882610c55565b606082019050919050565b6000610900602083610a43565b915061090b82610cca565b602082019050919050565b61091f81610b1a565b82525050565b600060208201905061093a6000830184610880565b92915050565b60006040820190506109556000830185610880565b6109626020830184610916565b9392505050565b600060208201905061097e600083018461088f565b92915050565b6000604082019050610999600083018561088f565b6109a66020830184610916565b9392505050565b60006020820190506109c2600083018461089e565b92915050565b600060208201905081810360008301526109e1816108ad565b9050919050565b60006020820190508181036000830152610a01816108d0565b9050919050565b60006020820190508181036000830152610a21816108f3565b9050919050565b6000602082019050610a3d6000830184610916565b92915050565b600082825260208201905092915050565b6000610a5f82610b1a565b9150610a6a83610b1a565b9250827fffffffffffffffffffffffffffffffffffffffffffffffffffffffffffffffff03821115610a9f57610a9e610ba3565b5b828201905092915050565b6000610ab582610b1a565b9150610ac083610b1a565b925082821015610ad357610ad2610ba3565b5b828203905092915050565b6000610ae982610afa565b9050919050565b6000819050919050565b600073ffffffffffffffffffffffffffffffffffffffff82169050919050565b6000819050919050565b6000610b2f82610b36565b9050919050565b6000610b4182610b48565b9050919050565b6000610b5382610afa565b9050919050565b6000610b6582610b1a565b91507fffffffffffffffffffffffffffffffffffffffffffffffffffffffffffffffff821415610b9857610b97610ba3565b5b600182019050919050565b7f4e487b7100000000000000000000000000000000000000000000000000000000600052601160045260246000fd5b7f4e487b7100000000000000000000000000000000000000000000000000000000600052603260045260246000fd5b600080fd5b7f4f776e61626c653a206e6577206f776e657220697320746865207a65726f206160008201527f6464726573730000000000000000000000000000000000000000000000000000602082015250565b7f546f6b656e697a656442616c6c6f743a20547279696e6720746f20766f74652060008201527f6d6f7265207468616e2074686520766f74696e6720706f7765722062616c616e60208201527f6365000000000000000000000000000000000000000000000000000000000000604082015250565b7f4f776e61626c653a2063616c6c6572206973206e6f7420746865206f776e6572600082015250565b610cfc81610ade565b8114610d0757600080fd5b50565b610d1381610b1a565b8114610d1e57600080fd5b5056fea2646970667358221220896c4e178c3cb99fe48ca1ce142668adb431de6cab27eceb1db4a5b33601092e64736f6c63430008070033",
  "linkReferences": {},
  "deployedLinkReferences": {}
}